:020000040000FA
:100000000C9463000C948B000C948B000C948B006C
:100010000C948B000C948B000C948B000C948B0034
:100020000C948B000C948B000C948B000C948B0024
:100030000C948B000C948B000C948B000C948B0014
:100040000C9415040C948B000C94E3030C94BD03E6
:100050000C948B000C948B000C948B000C948B00F4
:100060000C948B000C948B000000000024002700EF
:100070002A0000000000250028002B0000000000DE
:1000800023002600290004040404040404040202DA
:100090000202020203030303030301020408102007
:1000A0004080010204081020010204081020000012
:1000B0000008000201000003040700000000000027
:1000C00000005F04880711241FBECFEFD8E0DEBF19
:1000D000CDBF22E0A2E4B1E001C01D92A130B20781
:1000E000E1F711E0A0E0B1E0E4E1F4E102C0059045
:1000F0000D92A234B107D9F710E0C2E6D0E004C0F7
:100100002197FE010E94FC07C136D107C9F70E9462
:1001100097040C94FD090C940000AF92BF92CF920B
:10012000DF92EF92FF920F931F93CF93DF936C01B7
:100130007B018B01040F151FEB015E01AE18BF0898
:10014000C017D10759F06991D601ED91FC9101904A
:10015000F081E02DC6010995892B79F7C501DF9162
:10016000CF911F910F91FF90EF90DF90CF90BF90B4
:10017000AF900895CF93DF93FC0144815581608156
:10018000718184E591E00E948D00EC0142E050E035
:1001900068E171E084E591E00E948D008C0F9D1F65
:1001A000DF91CF910895FC01538D448D252F30E0D0
:1001B000842F90E0821B930B541710F0CF96089574
:1001C00001970895FC01918D828D981761F0A28DA1
:1001D000AE0FBF2FB11D5D968C91928D9F5F9F7367
:1001E000928F90E008958FEF9FEF0895FC01918D1D
:1001F000828D981731F0828DE80FF11D858D90E08A
:1002000008958FEF9FEF0895FC01918D228D892F26
:1002100090E0805C9F4F821B91098F73992708950E
:1002200084E591E00E94040121E0892B09F420E09B
:10023000822F089580E090E0892B29F00E94100120
:1002400081110C9400000895FC01A48DA80FB92F12
:10025000B11DA35ABF4F2C91848D90E001968F73EE
:100260009927848FA689B7892C93A089B1898C910D
:10027000837080648C93938D848D981306C002885C
:10028000F389E02D80818F7D80830895EF92FF9226
:100290000F931F93CF93DF93EC0181E0888F9B8DA9
:1002A0008C8D98131AC0E889F989808185FF15C063
:1002B0009FB7F894EE89FF896083E889F989808186
:1002C0008370806480839FBF81E090E0DF91CF9155
:1002D0001F910F91FF90EF900895F62E0B8D10E077
:1002E0000F5F1F4F0F731127E02E8C8D8E110CC0E6
:1002F0000FB607FCFACFE889F989808185FFF5CF31
:10030000CE010E942401F1CFEB8DEC0FFD2FF11DEA
:10031000E35AFF4FF0829FB7F8940B8FEA89FB896D
:1003200080818062CFCFCF93DF93EC01888D8823CB
:10033000B9F0AA89BB89E889F9898C9185FD03C048
:10034000808186FD0DC00FB607FCF7CF8C9185FF2D
:10035000F2CF808185FFEDCFCE010E942401E9CF4D
:10036000DF91CF910895833081F028F4813099F0A6
:100370008230A9F008958730A9F08830C9F0843020
:10038000B1F4809180008F7D03C0809180008F77D1
:1003900080938000089584B58F7784BD089584B5D7
:1003A0008F7DFBCF8091B0008F778093B000089550
:1003B0008091B0008F7DF9CFCF93DF93282F30E06D
:1003C000F901E255FF4F8491F901E656FF4FD491B0
:1003D000F901EA57FF4FC491CC23A1F081110E948B
:1003E000B301EC2FF0E0EE0FFF1FE458FF4FA59193
:1003F000B491EC91ED2381E090E009F480E0DF918D
:10040000CF91089580E090E0FACF1F93CF93DF93D0
:10041000282F30E0F901E255FF4F8491F901E656AB
:10042000FF4FD491F901EA57FF4FC491CC23A9F0B3
:10043000162F81110E94B301EC2FF0E0EE0FFF1F89
:10044000EE58FF4FA591B4918FB7F894EC9111112C
:1004500008C0D095DE23DC938FBFDF91CF911F9131
:100460000895DE2BF8CFCF93DF9390E0FC01E656A2
:10047000FF4F24918A579F4FFC0184918823D1F02C
:1004800090E0880F991FFC01E859FF4FA591B491A6
:10049000FC01EE58FF4FC591D49161110EC09FB77A
:1004A000F8948C91E22FE0958E238C932881E2239F
:1004B000E8839FBFDF91CF9108958FB7F894EC91B7
:1004C000E22BEC938FBFF6CF3FB7F89480914701B2
:1004D00090914801A0914901B0914A0126B5A89B8D
:1004E00005C02F3F19F00196A11DB11D3FBFBA2FC6
:1004F000A92F982F8827BC01CD01620F711D811D86
:10050000911D42E0660F771F881F991F4A95D1F70A
:1005100008958F929F92AF92BF92CF92DF92EF9207
:10052000FF924B015C010E9464026B017C010E94FE
:1005300064026C197D098E099F09683E734081052C
:100540009105A8F321E0821A9108A108B10888EE6C
:10055000C80E83E0D81EE11CF11C81149104A10493
:10056000B10429F7FF90EF90DF90CF90BF90AF904C
:100570009F908F9008950F931F93CF93DF93EC017B
:1005800088819981009759F02A813B812617370786
:1005900030F081E0DF91CF911F910F9108958B0191
:1005A0006F5F7F4F0E942709009759F099838883D6
:1005B0001B830A832C813D81232B59F7FC01108278
:1005C000E8CF80E0E7CFEF92FF920F931F93CF9396
:1005D000DF936115710541F480E0DF91CF911F91A8
:1005E0000F91FF90EF90089541155105B1F07B01F7
:1005F000EC010C811D81040F151FB8010E94BB0284
:10060000882351F3288139818C819D81B701820F24
:10061000931F0E94F6091D830C8381E0DECFCF93E8
:10062000DF93EC0188819981009711F00E949E0868
:10063000198218821D821C821B821A82DF91CF913F
:100640000895CF93DF93EC01FB01448155816081D4
:1006500071810E94E302811103C0CE010E940F0349
:10066000CE01DF91CF910895EF92FF920F931F93E8
:10067000CF93DF93EC017B018A01BA010E94BB0298
:1006800081110BC0CE010E940F03CE01DF91CF91EB
:100690001F910F91FF90EF9008951D830C83B70178
:1006A000888199810E94F609F0CFEF92FF920F9313
:1006B0001F93CF93DF93CDB7DEB762970FB6F89451
:1006C000DEBF0FBECDBF8C01CB01F80111821082BD
:1006D00013821282158214824AE09E012F5F3F4FDF
:1006E0007901B9010E949007F70101900020E9F714
:1006F0003197AF014E195F09B701C8010E94340359
:1007000062960FB6F894DEBF0FBECDBFDF91CF91DA
:100710001F910F91FF90EF900895CF93DF93EC011D
:10072000FB018617970749F060817181611571059A
:1007300041F0448155810E943403CE01DF91CF9175
:1007400008950E940F03F9CFFC01118210821382D9
:10075000128215821482FB0101900020E9F7319783
:10076000AF01461B570B0C943403FC01808191812F
:10077000009711F00C949E0808951F920F920FB6E7
:100780000F9211242F933F934F935F936F937F9317
:100790008F939F93AF93BF93EF93FF9384E591E083
:1007A0000E942401FF91EF91BF91AF919F918F9192
:1007B0007F916F915F914F913F912F910F900FBE5D
:1007C0000F901F9018951F920F920FB60F92112441
:1007D0002F938F939F93EF93FF93E0916401F09198
:1007E00065018081E0916A01F0916B0182FD1BC07F
:1007F000908180916D018F5F8F7320916E018217C0
:1008000041F0E0916D01F0E0EC5AFE4F958F80933E
:100810006D01FF91EF919F918F912F910F900FBEDE
:100820000F901F9018958081F4CF1F920F920FB6F2
:100830000F9211242F933F938F939F93AF93BF9366
:100840008091430190914401A0914501B0914601EE
:100850003091420123E0230F2D3758F50196A11D59
:10086000B11D209342018093430190934401A093D2
:100870004501B09346018091470190914801A091B4
:100880004901B0914A010196A11DB11D8093470114
:1008900090934801A0934901B0934A01BF91AF9151
:1008A0009F918F913F912F910F900FBE0F901F90AE
:1008B000189526E8230F0296A11DB11DD2CFE4E5BD
:1008C000F1E01382128288EE93E0A0E0B0E084832E
:1008D0009583A683B7838AE091E09183808385EC3A
:1008E00090E09587848784EC90E09787868780ECFA
:1008F00090E0918B808B81EC90E0938B828B82ECEB
:1009000090E0958B848B86EC90E0978B868B118E94
:10091000128E138E148E6AE171E087EF91E00E94CF
:10092000A4036AE171E081EF91E00C94A403CF93FA
:10093000DF93CDB7DEB7C254D1090FB6F894DEBF4E
:100940000FBECDBF789484B5826084BD84B58160CC
:1009500084BD85B5826085BD85B5816085BD80918A
:100960006E00816080936E00109281008091810002
:1009700082608093810080918100816080938100FA
:10098000809180008160809380008091B1008460BC
:100990008093B1008091B00081608093B00080911D
:1009A0007A00846080937A0080917A0082608093DC
:1009B0007A0080917A00816080937A0080917A0039
:1009C000806880937A001092C10060E082E00E940B
:1009D000330260E083E00E94330260E084E00E9422
:1009E000330260E085E00E94330260E086E00E940E
:1009F000330261E08EE00E94330261E08FE00E94EA
:100A00003302E0916401F091650182E08083E0911E
:100A10006001F09161011082E0916201F091630147
:100A20008FEC808310926C01E0916801F091690174
:100A300086E08083E0916601F091670180818061AA
:100A40008083E0916601F0916701808188608083F6
:100A5000E0916601F0916701808180688083E09178
:100A60006601F091670180818F7D80836BE171E089
:100A7000CE0107960E94A40310E000E08B859C85C0
:100A80000817190728F4EF81F885309709F0CCC1D1
:100A900010924B01EBE4F1E0E0800E2C000CFF081B
:100AA00080E3E81AF1086AE171E0CE0101960E9444
:100AB000A40383E0C82ED12CC7010C2C02C095954D
:100AC00087950A94E2F741E050E06FE171E080FD24
:100AD00002C061E271E0CE0101960E94E302E1E012
:100AE000CE1AD10848F74D815E8169817A8181EF04
:100AF00091E00E94E302CE0101960E94B5030F5FD0
:100B00001F4F0530110509F0B9CF63E271E0CE0146
:100B100001960E94A40361EF71E0CE0101960E944C
:100B200021030E94BA00CE0101960E94B503CE01B6
:100B300007960E94B50300E010E06AE171E0CE0183
:100B4000CD960E94A4036AE171E0CE01C7960E948F
:100B5000A4036AE171E0CE01C1960E94A4036AE198
:100B600071E0CE018B960E94A4036AE171E0CE0190
:100B700085960E94A40386E00E94DC01019709F09B
:100B800033C182E00E94DC019093530180935201B3
:100B900083E00E94DC01909351018093500184E036
:100BA0000E94DC0190934F0180934E0185E00E94EA
:100BB000DC01BC01CE0101960E94550360914E01FB
:100BC00070914F01CE0107960E945503609150012C
:100BD00070915101CE010D960E9455036091520112
:100BE00070915301CE0149960E9455031C8A1B8ABD
:100BF0001E8A1D8A188E1F8ABE01675E7F4FCE0136
:100C000043960E948D03BE01635F7F4FCE014396E2
:100C10000E942103BE01695F7F4F0E942103BE0134
:100C20006F5F7F4F0E94210318A21F8E1AA219A284
:100C30001CA21BA2BC01CE014F960E948D03CE01C7
:100C400043960E94B503CE0149960E94B503CE019A
:100C50000D960E94B503CE0107960E94B503CE0102
:100C600001960E94B50380914C0190914D0101962F
:100C700090934D0180934C018330910509F4F1C0AC
:100C80000CF0D5C08130910509F4DDC0029709F45C
:100C9000E2C064E670E080E090E00E9489026BE2CE
:100CA00071E0CE0101960E94A403BE01635C7F4FF8
:100CB000CE0101960E9421030E94BA00CE01019646
:100CC0000E94B5036EE371E0CE0101960E94A40379
:100CD000BE01695C7F4FCE0101960E9421030E94F4
:100CE000BA00CE0101960E94B5036FE271E0CE0119
:100CF00001960E94A403BE016F5C7F4FCE01019656
:100D00000E9421030E94BA00CE0101960E94B50301
:100D100063E371E0CE0101960E94A403BE01655D0C
:100D20007F4FCE0101960E9421030E94BA00CE019E
:100D300001960E94B50367E371E0CE0101960E941F
:100D4000A403BE016B5D7F4FCE0101960E9421037B
:100D50000E94BA00CE0101960E94B5031A82198240
:100D60001C821B821E821D8267EF71E0CE010196FC
:100D70000E948D03BE01635C7F4FCE0101960E94ED
:100D80002103BE01695C7F4F0E942103BE016F5C9D
:100D90007F4F0E942103BE01655D7F4F0E942103AA
:100DA000BE016B5D7F4F0E942103BC0187EF91E084
:100DB0000E948D03CE0101960E94B5036BE371E0A2
:100DC000CE0101960E94A40367EF71E0CE01019667
:100DD0000E9421030E94BA00CE0101960E94B50331
:100DE000CE014F960E94B5032091FB013091FC018A
:100DF0008091F5019091F6012817390709F040C05C
:100E00008091F7019091F8016091F1017091F201E8
:100E10000097E9F16115710581F5232B09F444C0B0
:100E2000FC01808190E03EC0E00FF11F35CE8430A0
:100E30009105E9F0059709F02CCFBE01615E7F4F67
:100E4000CE01859605C0BE01615E7F4FCE01CD9675
:100E50000E948D031ECFBE01615E7F4FCE01C796FB
:100E6000F7CFBE01615E7F4FCE01C196F1CFBE01CB
:100E7000615E7F4FCE018B96EBCF0E94ED0912C0D1
:100E800061E08FE00E94050260E08EE013C0611512
:100E9000710551F0232B41F0FB01808190E0919589
:100EA00081959109892B61F761E08EE00E9405022E
:100EB00060E08FE00E94050264E670E080E090E070
:100EC0000E94890266E970E080E090E00E94890259
:100ED000CE0185960E94B503CE018B960E94B50384
:100EE000CE01C1960E94B503CE01C7960E94B503FC
:100EF000CE01CD960E94B5030115110509F41DCE52
:100F00000E941001882309F416CE0E94000013CE1F
:100F100081EF91E00E94B50387EF91E00C94B50357
:100F2000BB274A3031F4992322F4BDE29095819594
:100F30009F4F0C949C07BB27FB015527AA27880FBE
:100F4000991FAA1FA41710F0A41B83955051B9F73D
:100F5000A05DAA3308F0A95DA193009779F7B111BC
:100F6000B1931192CB010C94B507DC01FC01672F02
:100F700071917723E1F7329704C07C916D93708370
:100F80006291AE17BF07C8F308952F923F924F9218
:100F90005F926F927F928F929F92AF92BF92CF9209
:100FA000DF92EF92FF920F931F93CF93DF93CDB712
:100FB000DEB7CA1BDB0B0FB6F894DEBF0FBECDBF8A
:100FC00009942A88398848885F846E847D848C845B
:100FD0009B84AA84B984C884DF80EE80FD800C8164
:100FE0001B81AA81B981CE0FD11D0FB6F894DEBF47
:100FF0000FBECDBFED010895EE0FFF1F0590F491D8
:10100000E02D09940F931F93CF93DF9382309105C6
:1010100010F482E090E0E091FF01F091000230E0F6
:1010200020E0B0E0A0E0309799F42115310509F4F3
:101030004AC0281B390B24303105D8F58A819B81A1
:101040006115710589F1FB0193838283FE0111C053
:10105000408151810281138148175907E0F04817F8
:10106000590799F4109761F012960C931297139602
:101070001C933296CF01DF91CF911F910F9108956C
:101080000093FF0110930002F4CF2115310551F0B8
:101090004217530738F0A901DB019A01BD01DF01B6
:1010A000F801C1CFEF01F9CF909300028093FF01C7
:1010B000CDCFFE01E20FF31F8193919322503109AE
:1010C00039832883D7CF2091FD013091FE01232B56
:1010D00041F420910201309103013093FE012093ED
:1010E000FD0120910001309101012115310541F4EC
:1010F0002DB73EB74091040150910501241B350BDB
:10110000E091FD01F091FE01E217F307A0F42E1B20
:101110003F0B2817390778F0AC014E5F5F4F24175B
:10112000350748F04E0F5F1F5093FE014093FD01BD
:10113000819391939FCFF0E0E0E09CCFCF93DF933A
:101140000097E9F0FC01329713821282A091FF010F
:10115000B0910002ED0130E020E01097A1F4208171
:101160003181820F931F2091FD013091FE012817DC
:10117000390709F061C0F093FE01E093FD01DF91B2
:10118000CF910895EA01CE17DF07E8F54A815B8128
:101190009E0141155105B1F7E901FB83EA834991AD
:1011A0005991C40FD51FEC17FD0761F4808191811F
:1011B0000296840F951FE901998388838281938128
:1011C0009B838A83F0E0E0E012968D919C911397C7
:1011D0000097B9F52D913C911197CD010296820FA0
:1011E000931F2091FD013091FE012817390739F630
:1011F000309751F5109200021092FF01B093FE015A
:10120000A093FD01BCCFD383C28340815181840F61
:10121000951FC817D90761F44E5F5F4F8881998188
:10122000480F591F518340838A819B819383828316
:101230002115310509F0B0CFF0930002E093FF01D2
:101240009ECFFD01DC01C0CF13821282D7CFB0E068
:10125000A0E0EDE2F9E00C94C7078C01009751F48F
:10126000CB010E9402088C01C801CDB7DEB7E0E1D6
:101270000C94E307FC01E60FF71F9C012250310993
:10128000E217F30708F49DC0D901CD91DC911197C5
:10129000C617D70798F0C530D10530F3CE010497B3
:1012A0008617970708F3C61BD70B2297C193D193D4
:1012B0006D937C93CF010E949E08D6CF5B01AC1A40
:1012C000BD0A4C018C0E9D1EA091FF01B091000241
:1012D000512C412CF12CE12C109731F58091FD011E
:1012E0009091FE018815990509F05CC046165706D5
:1012F00008F058C08091000190910101009741F4DD
:101300008DB79EB74091040150910501841B950B48
:10131000E817F90708F055C0F093FE01E093FD01CE
:10132000F90171836083A0CF8D919C9111971296E2
:101330006C90129713967C901397A815B90559F5E0
:101340006C0142E0C40ED11CCA14DB0420F1AC01D4
:101350004A195B09DA011296159780F0628273824E
:1013600051834083D9016D937C93E114F10471F0B2
:10137000D7011396FC93EE93129776CF22968C0F9B
:101380009D1FF90191838083F301EFCFF093000259
:10139000E093FF0169CF4816590608F42C017D013E
:1013A000D3019ACFCB010E9402087C01009749F03B
:1013B000AE01B8010E94E409C8010E949E0887019D
:1013C00053CF10E000E050CFFB01DC0102C00190E0
:1013D0000D9241505040D8F70895FB01DC018D91EA
:1013E000019080190110D9F3990B0895FB01DC01DC
:1013F00001900D920020E1F7089510E0C2E6D0E0E0
:1014000004C0FE010E94FC072196C336D107C9F72C
:10141000F894FFCF000001028000000000004601A8
:101420008D00D30093010401E200F6000D0A0031A3
:1014300031313131003000636F6E7472613D006193
:101440003D2000633D2000643D2000653D20006399
:061450006F6D623D2000FB
:107E0000112484B714BE81FFF0D085E080938100F7
:107E100082E08093C00088E18093C10086E0809377
:107E2000C20080E18093C4008EE0C9D0259A86E02C
:107E300020E33CEF91E0309385002093840096BBD3
:107E4000B09BFECF1D9AA8958150A9F7CC24DD24C4
:107E500088248394B5E0AB2EA1E19A2EF3E0BF2EE7
:107E6000A2D0813461F49FD0082FAFD0023811F036
:107E7000013811F484E001C083E08DD089C08234E0
:107E800011F484E103C0853419F485E0A6D080C0E4
:107E9000853579F488D0E82EFF2485D0082F10E0AE
:107EA000102F00270E291F29000F111F8ED06801E7
:107EB0006FC0863521F484E090D080E0DECF843638
:107EC00009F040C070D06FD0082F6DD080E0C81688
:107ED00080E7D80618F4F601B7BEE895C0E0D1E017
:107EE00062D089930C17E1F7F0E0CF16F0E7DF06D8
:107EF00018F0F601B7BEE89568D007B600FCFDCFD4
:107F0000A601A0E0B1E02C9130E011968C91119780
:107F100090E0982F8827822B932B1296FA010C0160
:107F200087BEE89511244E5F5F4FF1E0A038BF0790
:107F300051F7F601A7BEE89507B600FCFDCF97BE46
:107F4000E89526C08437B1F42ED02DD0F82E2BD052
:107F50003CD0F601EF2C8F010F5F1F4F84911BD097
:107F6000EA94F801C1F70894C11CD11CFA94CF0C13
:107F7000D11C0EC0853739F428D08EE10CD085E9AC
:107F80000AD08FE07ACF813511F488E018D01DD067
:107F900080E101D065CF982F8091C00085FFFCCF94
:107FA0009093C60008958091C00087FFFCCF809118
:107FB000C00084FD01C0A8958091C6000895E0E648
:107FC000F0E098E1908380830895EDDF803219F02E
:107FD00088E0F5DFFFCF84E1DECF1F93182FE3DFCA
:107FE0001150E9F7F2DF1F91089580E0E8DFEE27F6
:047FF000FF270994CA
:027FFE00040479
:00000001FF
